{
  "contractName": "Deposit",
  "abi": [
    {
      "constant": false,
      "inputs": [
        {
          "internalType": "uint256",
          "name": "amt",
          "type": "uint256"
        }
      ],
      "name": "sendFund",
      "outputs": [],
      "payable": true,
      "stateMutability": "payable",
      "type": "function"
    },
    {
      "constant": false,
      "inputs": [],
      "name": "withdrawAllFund",
      "outputs": [
        {
          "internalType": "uint256",
          "name": "",
          "type": "uint256"
        }
      ],
      "payable": true,
      "stateMutability": "payable",
      "type": "function"
    }
  ],
  "bytecode": "0x60806040526000805534801561001457600080fd5b50610126806100246000396000f3fe60806040526004361060265760003560e01c80637edba13014602b57806386ff6b65146056575b600080fd5b605460048036036020811015603f57600080fd5b81019080803590602001909291905050506072565b005b605c6098565b6040518082815260200191505060405180910390f35b670de0b6b3a7640000341015608657600080fd5b80600080828254019250508190555050565b6000806000549050600080819055503373ffffffffffffffffffffffffffffffffffffffff166108fc829081150290604051600060405180830381858888f1935050505015801560ec573d6000803e3d6000fd5b50509056fea265627a7a723158207563c3e4d71e3d00dd4aba0565fb10821eeb08abc5f673370adda8696259710e64736f6c634300050c0032",
  "source": "pragma solidity 0.5.12;\n\ncontract Deposit{\n\n\n  /*\n    uint public fundPool;\n    uint public betAmount;\n    uint private percentage;\n    uint public playerGuess;\n    uint private status_wl;\n    uint private sendAmount;\n\n\n\n\n\n    function receiveFund_pool()public payable{\n        require(msg.value >= 10 ether);\n\n        fundPool = msg.value;\n    }\n\n    function receiveBetAmount(uint betInput) public{\n       betAmount = betInput*10^18;\n\n    }\n\n    function getPlayerGuess(uint guess)public{\n        playerGuess = guess;\n\n    }\n\n\n\n    function receiveFund_player()public payable{\n        require(msg.value >= 1 ether);\n        fundPool += betAmount;\n\n\n\n    }\n\n    function payPlayer() public payable returns(uint) {\n        require(status_wl == 1);\n        uint toTransfer = betAmount *2;\n        betAmount = 0;\n        status_wl = 0;\n        msg.sender.transfer(toTransfer);\n        return toTransfer;\n\n\n    }\n\n\n\n\n    function compareNum()public returns(uint){\n\n\n        if(now % 2 == playerGuess){\n            //return (playerGuess, resultGen);\n            status_wl = 1 ;\n            payPlayer();\n            return 1;\n        }\n\n        else{\n            //fundPool = fundPool + betAmount *10^18;\n            //return (playerGuess, resultGen);\n            status_wl = 0;\n            return 0;\n        }\n    }\n\n\n*/\n\nuint varBalance = 0;\n\nfunction sendFund(uint amt)public payable{\n  require(msg.value >= 1 ether);\n  varBalance += amt;\n\n}\n\nfunction withdrawAllFund()public payable returns(uint){\n  uint toTransfer = varBalance;\n  varBalance = 0;\n  msg.sender.transfer(toTransfer);\n}\n\n\n\n\n\n}\n",
  "sourcePath": "/Users/chuahsonglin/Desktop/deposit/contracts/Deposit.sol",
  "compiler": {
    "name": "solc",
    "version": "0.5.12+commit.7709ece9.Emscripten.clang"
  },
  "schemaVersion": "3.0.23",
  "updatedAt": "2020-09-03T02:14:53.689Z",
  "networkType": "ethereum",
  "devdoc": {
    "methods": {}
  },
  "userdoc": {
    "methods": {}
  }
}